S01B0000447269766572416E644D7367546573745F76312E73726563BD
S113000071C000008EC000008CC000008AC00000D7
S113001088C0000086C0000084C0000082C00000C8
S113002080C000007EC000007CC000007AC00000D8
S113003078C0000076C0000074C0000072C00000E8
S113004070C000006EC000006CC000006AC00000F8
S113005068C00000B5C0000064C0000062C00000B9
S113006060C0000073C100005CC000005AC0000002
S113007058C0000056C0000054C0000052C0000028
S113008050C000004EC000004CC000004AC0000038
S113009048C0000046C0000044C0000042C0000048
S11300A040C000003EC000003CC000003AC0000058
S11300B038C0000036C0000034C0000032C0000068
S11300C030C000002EC000002CC000002AC0000078
S11300D028C0000026C0000024C0000022C0000088
S11300E020C0000011241FBECFEFD1E2DEBFCDBF80
S11300F000E00CBF12E0A0E0B2E0E0EBF3E000E0CF
S11301000BBF02C007900D92A230B107D9F726E0C9
S1130110A2E0B2E001C01D92A730B207E1F723D0FC
S113012045C16ECF84B5826184BD86E987BD88BD33
S1130130EEE6F0E08081826080839D9AA598089520
S113014085B5836085BD089585B5887F85BDA598EF
S113015010920302109202020895279A08952F9A8A
S113016008952F980895CF93DF93CDB7DEB7E29724
S11301700FB6F894DEBF0FBECDBF59D0EEDFD2DF8D
S113018078940F2EF2E3FF2EF02D8E010F5F1F4F98
S1130190D6D08823E9F3F8018F2D11928A95E9F7D7
S11301A0C80194D08981813319F4D9DFC9DFF0CF34
S11301B0803319F4D6DFC8DFEBCFC8017DD0E8CF98
S11301C01F920F920FB60F9211240BB60F922F931A
S11301D03F934F935F936F937F938F939F93AF93CB
S11301E0BF93EF93FF9380910202909103020196D3
S11301F09093030280930202209100023091010245
S11302008217930708F0A0DFFF91EF91BF91AF91A0
S11302109F918F917F916F915F914F913F912F911A
S11302200F900BBE0F900FBE0F901F901895109259
S1130230C50087E68093C40082E08093C00086E016
S11302408093C200E1ECF0E080818861808380814A
S113025080688083789408950F931F93CF93DF93DE
S11302608C01161617069CF420E0E0ECF0E0C6ECD6
S1130270D0E0908195FFFDCFD801A20FB11D9C91D4
S113028098832F5F422F50E04617570794F3E0EC12
S1130290F0E0808185FFFDCF8DE08093C600E0EC27
S11302A0F0E0808185FFFDCF8AE08093C600DF9176
S11302B0CF911F910F910895FC0101900020E9F75F
S11302C03197BF01681B790BC7CF0895AC018091AA
S11302D00402882399F180910402815080930402DE
S11302E0E0910602F0E0E95FFD4F80818D30D1F0AE
S11302F090E0E091060221E02E0F20930602F0E048
S1130300E95FFD4F2081FA01E90FF11D20838091FF
S11303100602E09106029F5FF0E0E95FFD4F208155
S11303202D3039F7809106028F5F80930602809109
S113033006028F5F809306028091060208959091D1
S1130340040281E0911101C080E008951F920F9290
S11303500FB60F9211240BB60F928F93EF93FF9366
S1130360E09105028091C600F0E0E95FFD4F8083D3
S1130370E0910502F0E0E95FFD4F80818D3029F4C2
S1130380809104028F5F80930402809105028F5F45
S11303908093050280910502FF91EF918F910F9058
S11303A00BBE0F900FBE0F901F901895F894FFCFBF
S10503B09001B6
S9030000FC
