S01B0000447269766572416E644D7367546573745F76312E73726563BD
S113000071C000008EC000008CC000008AC00000D7
S113001088C0000086C0000084C0000082C00000C8
S113002080C000007EC000007CC000007AC00000D8
S113003078C0000076C0000074C0000072C00000E8
S113004070C000006EC000006CC000006AC00000F8
S113005068C00000E1C0000064C0000062C000008D
S113006060C00000F6C100005CC000005AC000007F
S113007058C0000056C0000054C0000052C0000028
S113008050C000004EC000004CC000004AC0000038
S113009048C0000046C0000044C0000042C0000048
S11300A040C000003EC000003CC000003AC0000058
S11300B038C0000036C0000034C0000032C0000068
S11300C030C000002EC000002CC000002AC0000078
S11300D028C0000026C0000024C0000022C0000088
S11300E020C0000011241FBECFEFD1E2DEBFCDBF80
S11300F000E00CBF12E0A0E0B2E0E8EDF4E000E0C4
S11301000BBF02C007900D92AC31B107D9F726E0BE
S1130110ACE1B2E001C01D92A132B207E1F731D0E7
S1130120D9C16ECFCF92DF92EF92FF920F931F93BC
S1130130CF93DF93CDB7DEB7E2970FB6F894DEBF67
S11301400FBECDBF7C016B018E010F5F1F4F82E399
S1130150F80111928A95E9F7C801E4D0A601B70124
S1130160C80120D1E2960FB6F894DEBF0FBECDBF12
S1130170DF91CF911F910F91FF90EF90DF90CF907F
S11301800895CF93DF93CDB7DEB7E2970FB6F89417
S1130190DEBF0FBECDBF77D078940F2EF4E1CF2E03
S11301A0F02D8E01015E1F4F0F2EFEE1DF2EF02D8C
S11301B0CE0101967C01EFD08823E9F3F8018C2D60
S11301C011928A95E9F7F7018D2D11928A95E9F735
S11301D0B701C801A7DF62E072E0C80172D1892BC0
S11301E021F486E092E094D0E6CF6AE072E0C801A0
S11301F068D1892B21F480E192E08AD0DCCF86E1BA
S113020092E086D0D8CF85B5887F85BDA598109219
S11302101D0210921C0208951F920F920FB60F92A6
S113022011240BB60F922F933F934F935F936F93C9
S11302307F938F939F93AF93BF93EF93FF9380919B
S11302401C0290911D02019690931D0280931C0242
S113025020910002309101028217930708F0D3DF46
S1130260FF91EF91BF91AF919F918F917F916F918A
S11302705F914F913F912F910F900BBE0F900FBE46
S11302800F901F9018951092C50087E68093C400C4
S113029082E08093C00086E08093C200E1ECF0E04D
S11302A080818861808380818068808378940895C8
S11302B00F931F93CF93DF938C01161617069CF4AC
S11302C020E0E0ECF0E0C6ECD0E0908195FFFDCFBB
S11302D0D801A20FB11D9C9198832F5F422F50E04B
S11302E04617570794F3E0ECF0E0808185FFFDCFDB
S11302F08DE08093C600E0ECF0E0808185FFFDCFC7
S11303008AE08093C600DF91CF911F910F910895E9
S1130310FC0101900020E9F73197BF01681B790BBC
S1130320C7CF0895AC0180911E02882399F1809172
S11303301E02815080931E02E0912002F0E0EF5DE6
S1130340FD4F80818D30D1F090E0E091200221E0DA
S11303502E0F20932002F0E0EF5DFD4F2081FA0183
S1130360E90FF11D208380912002E09120029F5F1C
S1130370F0E0EF5DFD4F20812D3039F780912002B0
S11303808F5F80932002809120028F5F80932002F0
S113039080912002089590911E0281E0911101C084
S11303A080E00895BF92CF92DF92EF92FF920F9375
S11303B01F93CF93DF938C016B017A01FC01808141
S11303C08D33F1F08D30F1F08823F1F0D0E0C0E00E
S11303D0883051F0BB24B394BD0E90E06AD0F6018E
S11303E0ED0FF11D8083DB2DCF5FF801EC0FF11DC4
S11303F080818D3351F08D3041F08111E9CF05C0FA
S1130400C0E003C0C0E001C0C0E0CF5FF801EC0F62
S1130410F11D80818D3099F0882389F090E0883037
S113042029F0F701E90FF11D80839F5FCF5FF80189
S1130430EC0FF11D80818D3011F08111F0CFDF912F
S1130440CF911F910F91FF90EF90DF90CF90BF90CD
S113045008951F920F920FB60F9211240BB60F92AC
S11304608F93EF93FF93E0911F028091C600F0E019
S1130470EF5DFD4F8083E0911F02F0E0EF5DFD4FE3
S113048080818D3029F480911E028F5F80931E023B
S113049080911F028F5F80931F0280911F02FF9142
S11304A0EF918F910F900BBE0F900FBE0F901F9086
S11304B018959111089581548A5108F4805E855AE3
S11304C00895FB01DC018D91019080190110D9F38D
S10B04D0990B0895F894FFCF85
S11304D8900176656C0056454C0073746172740023
S10F04E85354415254004552524F5200EC
S9030000FC
