S01B0000447269766572416E644D7367546573745F76312E73726563BD
S113000071C000008EC000008CC000008AC00000D7
S113001088C0000086C0000084C0000082C00000C8
S113002080C000007EC000007CC000007AC00000D8
S113003078C0000076C0000074C0000072C00000E8
S113004070C000003EC100006CC000006AC0000027
S113005068C0000066C0000064C0000062C0000008
S113006060C0000089C200005CC000005AC00000EB
S113007058C0000056C0000054C0000052C0000028
S113008050C000004EC000004CC000004AC0000038
S113009048C0000046C0000044C0000042C0000048
S11300A040C000003EC000003CC000003AC0000058
S11300B038C0000036C0000034C0000032C0000068
S11300C030C000002EC000002CC000002AC0000078
S11300D028C0000026C0000024C0000022C0000088
S11300E020C0000011241FBECFEFD1E2DEBFCDBF80
S11300F000E00CBF12E0A0E0B2E0EEEFFBE000E0B5
S11301000BBF02C007900D92AE32B107D9F726E0BB
S1130110AEE2B2E001C01D92A633B207E1F731D0DE
S11301206CC56ECFCF92DF92EF92FF920F931F9325
S1130130CF93DF93CDB7DEB7E2970FB6F894DEBF67
S11301400FBECDBF7C016B018E010F5F1F4F82E399
S1130150F80111928A95E9F7C80177D1A601B70190
S1130160C801B3D1E2960FB6F894DEBF0FBECDBF7F
S1130170DF91CF911F910F91FF90EF90DF90CF907F
S11301800895CF93DF93CDB7DEB7E2970FB6F89417
S1130190DEBF0FBECDBFDED054D078940F2EF4E175
S11301A0CF2EF02D8E01015E1F4F0F2EFEE1DF2EAC
S11301B0F02DCE0101967C0181D18823E9F3F80169
S11301C08C2D11928A95E9F7F7018D2D11928A955C
S11301D0E9F7B701C801A6DF63E072E0C80121D2E4
S11301E0892B39F4C701B4D05C0146D0C50101D1D3
S11301F0E3CF67E072E0C80114D2892B99F4C701F8
S1130200A7D05C018091320290E0F3D0B50180E088
S113021090E03BD08DE092E0E2D08091320290E019
S1130220E8D0CACF65E172E0C801FBD1892B29F47B
S11302303FD08AE192E0D3D0BFCF82E292E0CFD028
S1130240BBCFE0E8F0E0808180648083E1E8F0E007
S11302508081886080838091000290910102909354
S1130260890080938800EFE6F0E0808182608083DB
S1130270259A2D9878940895909301028093000212
S11302809093890080938800089560932E02709360
S11302902F02809330029093310281E080933202E6
S11302A0E1E8F0E0908180910202892B8083089537
S11302B0E1E8F0E08081887F80832D9810923202FB
S11302C008951F920F920FB60F9211240BB60F923E
S11302D02F933F934F935F936F937F938F939F934A
S11302E0AF93BF93EF93FF9380912E0290912F02CF
S11302F0A0913002B0913102181619061A061B0695
S11303000CF0D6DF80912E0290912F02A091300242
S1130310B09131020197A109B10980932E02909303
S11303202F02A0933002B0933102FF91EF91BF915D
S1130330AF919F918F917F916F915F914F913F9179
S11303402F910F900BBE0F900FBE0F901F9018951A
S113035043C108951092C50087E68093C40082E0EB
S11303608093C00086E08093C200E1ECF0E08081DD
S113037088618083808180688083789408950F9356
S11303801F93CF93DF938C01161617069CF420E07D
S1130390E0ECF0E0C6ECD0E0908195FFFDCFD80111
S11303A0A20FB11D9C9198832F5F422F50E04617F6
S11303B0570794F3E0ECF0E0808185FFFDCF8DE0FA
S11303C08093C600E0ECF0E0808185FFFDCF8AE0F9
S11303D08093C600DF91CF911F910F910895FC0186
S11303E001900020E9F73197BF01681B790BC7CF53
S11303F008950F931F93CF93DF9300D000D0CDB710
S1130400DEB78E010F5F1F4F26E0F80111922A9587
S1130410E9F79F938F938BE292E09F938F931F93BF
S11304200F9310D1C801DBDF0F900F900F900F9046
S11304300F900F9026960FB6F894DEBF0FBECDBF77
S1130440DF91CF911F910F910895AC0180913302F8
S1130450882399F180913302815080933302E09193
S11304603502F0E0EA5CFD4F80818D30D1F090E000
S1130470E091350221E02E0F20933502F0E0EA5C92
S1130480FD4F2081FA01E90FF11D2083809135028F
S1130490E09135029F5FF0E0EA5CFD4F20812D3052
S11304A039F7809135028F5F809335028091350250
S11304B08F5F8093350280913502089590913302C5
S11304C081E0911101C080E00895BF92CF92DF9244
S11304D0EF92FF920F931F93CF93DF938C016B01E5
S11304E07A01FC0180818D33F1F08D30F1F08823A5
S11304F0F1F0D0E0C0E0883051F0BB24B394BD0EDD
S113050090E087D0F601ED0FF11D8083DB2DCF5FE6
S1130510F801EC0FF11D80818D3351F08D3041F0E5
S11305208111E9CF05C0C0E003C0C0E001C0C0E054
S1130530CF5FF801EC0FF11D80818D3099F0882395
S113054089F090E0883029F0F701E90FF11D8083EC
S11305509F5FCF5FF801EC0FF11D80818D3011F0AA
S11305608111F0CFDF91CF911F910F91FF90EF9008
S1130570DF90CF90BF9008951F920F920FB60F9205
S113058011240BB60F928F93EF93FF93E0913402F3
S11305908091C600F0E0EA5CFD4F8083E091340274
S11305A0F0E0EA5CFD4F80818D3029F480913302C4
S11305B08F5F80933302809134028F5F8093340283
S11305C080913402FF91EF918F910F900BBE0F90A9
S11305D00FBE0F901F901895FC0188279927E89467
S11305E021912032E9F3293010F02E30C8F32B3258
S11305F039F02D3231F4689403C01CD0820F911D60
S1130600219120532A30C8F31EF4909581959F4F71
S113061008959111089581548A5108F4805E855A91
S11306200895FB01DC018D91019080190110D9F32B
S1130630990B08957AE0979F902D879F802D910DB7
S1130640112408950F931F93CF93DF93CDB7DEB793
S11306502E970FB6F894DEBF0FBECDBF0E891F894B
S113066086E08C831A8309838FEF9FE79E838D83B3
S1130670AE01465E5F4F688D798DCE01019610D034
S1130680EF81F885E00FF11F10822E960FB6F894D3
S1130690DEBF0FBECDBFDF91CF911F910F910895A3
S11306A02F923F924F925F926F927F928F929F927E
S11306B0AF92BF92CF92DF92EF92FF920F931F936C
S11306C0CF93DF93CDB7DEB72B970FB6F894DEBF89
S11306D00FBECDBF6C017B018A01FC01178216821B
S11306E0838181FFBFC1CE0101963C01F601938154
S11306F0F70193FD859193FF81917F01882309F48C
S1130700ADC1853239F493FD859193FF81917F01C9
S1130710853221F4B60190E0D6D1E8CF912C212C7A
S1130720312CFFE1F315D8F08B3279F038F48032B4
S113073079F08332A1F4232D20611DC08D3261F044
S1130740803369F4232D216016C0832D8260382EF6
S1130750E32DE4603E2E2AC0F32DF8601DC037FC63
S11307602DC020ED280F2A3040F08E32B9F436FC2B
S113077075C1232D2064322E19C036FE06C08AE0CE
S1130780989E200D1124922E11C0EAE02E9E200D79
S11307901124222EF32DF0623F2E08C08C3621F452
S11307A0832D8068382E02C0883641F4F70193FD0A
S11307B0859193FF81917F018111B3CF982F9F7D04
S11307C09554933028F40C5F1F4F9FE399830DC019
S11307D0833631F0833771F0833509F055C020C07A
S11307E0F801808189830E5F1F4F88248394912CA4
S11307F0530112C02801F2E04F0E511CF801A080F1
S1130800B18036FE03C0692D70E002C06FEF7FEF48
S1130810C5014ED14C018201F32DFF773F2E15C047
S1130820280122E0420E511CF801A080B18036FE5E
S113083003C0692D70E002C06FEF7FEFC5012DD1B9
S11308404C01F32DF0683F2E820133FC19C0822D38
S113085090E088169906A0F4B60180E290E033D1C6
S11308602A94F5CFF50137FC859137FE81915F011C
S1130870B60190E028D121102A9421E0821A91082F
S11308808114910479F7E1C0843611F0893639F581
S1130890F80137FE07C060817181828193810C5F0A
S11308A01F4F08C060817181072E000C880B990BC3
S11308B00E5F1F4FF32DFF763F2E97FF09C09095D3
S11308C08095709561957F4F8F4F9F4FF0683F2EB5
S11308D02AE030E0A30133D1882E861844C085373E
S11308E031F4232D2F7EB22E2AE030E025C0932D43
S11308F0997FB92E8F36C1F018F4883579F0AEC0DF
S1130900803719F0883721F0A9C0E92FE061BE2EA5
S1130910B4FE0DC0FB2DF460BF2E09C034FE0AC026
S1130920292F2660B22E06C028E030E005C020E161
S113093030E002C020E132E0F801B7FE07C0608178
S11309407181828193810C5F1F4F06C06081718128
S113095080E090E00E5F1F4FA301F1D0882E86182F
S1130960FB2DFF773F2E36FE0DC0232D2E7FA22EAA
S1130970891458F434FE0BC032FC09C0832D8E7EDA
S1130980A82E05C0B82CA32C03C0B82C01C0B92CC8
S1130990A4FE0FC0FE01E80DF11D8081803321F417
S11309A09A2D997EA92E09C0A2FE06C0B394B394D1
S11309B004C08A2D867809F0B394A3FC10C0A0FE6D
S11309C006C0B21480F4280C922C9B180DC0B214EB
S11309D058F4B60180E290E076D0B394F8CFB21424
S11309E018F42B1802C0982C212CA4FE0FC0B601B9
S11309F080E390E068D0A2FE16C0A1FC03C088E7A3
S1130A0090E002C088E590E0B6010CC08A2D86789B
S1130A1051F0A1FE02C08BE201C080E2A7FC8DE28E
S1130A20B60190E050D0891430F4B60180E390E030
S1130A304AD09A94F8CF8A94F301E80DF11D80818D
S1130A40B60190E040D08110F6CF222009F44ECEBA
S1130A50B60180E290E037D02A94F7CFF601868180
S1130A60978102C08FEF9FEF2B960FB6F894DEBFED
S1130A700FBECDBFDF91CF911F910F91FF90EF90EB
S1130A80DF90CF90BF90AF909F908F907F906F90AA
S1130A905F904F903F902F900895FC010590615016
S1130AA070400110D8F7809590958E0F9F1F089580
S1130AB0FC016150704001900110D8F78095909529
S1130AC08E0F9F1F08950F931F93CF93DF93FB0106
S1130AD0238121FD03C08FEF9FEF2CC022FF16C09E
S1130AE046815781248135814217530744F4A081FC
S1130AF0B1819D012F5F3F4F318320838C932681E9
S1130B0037812F5F3F4F3783268314C08B01EC015D
S1130B10FB010084F185E02D1995892BE1F6D801BC
S1130B2016968D919C911797019617969C938E9388
S1130B301697CE01DF91CF911F910F910895FA017D
S1130B40AA27283051F1203181F1E8946F936E7F08
S1130B506E5F7F4F8F4F9F4FAF4FB1E03ED0B4E0F9
S1130B603CD0670F781F891F9A1FA11D680F791F3A
S1130B708A1F911DA11D6A0F711D811D911DA11D4B
S1130B8020D009F468943F912AE0269F112430195B
S1130B90305D3193DEF6CF010895462F4770405DF6
S1130BA04193B3E00FD0C9F7F6CF462F4F70405DA5
S1130BB04A3318F0495D31FD4052419302D0A9F700
S1130BC0EACFB4E0A6959795879577956795BA95FA
S1130BD0C9F700976105710508959B01AC010A2EC0
S1130BE006945795479537952795BA95C9F7620F97
S1110BF0731F841F951FA01D0895F894FFCF56
S1130BFEA8610176656C007374617274007374611C
S1130C0E727465640073746F700073746F707065C2
S1110C1E64004552524F5200256400257500B3
S9030000FC
