:1000000071C000008EC000008CC000008AC00000DB
:1000100088C0000086C0000084C0000082C00000CC
:1000200080C000007EC000007CC000007AC00000DC
:1000300078C0000076C0000074C0000072C00000EC
:1000400070C000006EC000006CC000006AC00000FC
:1000500068C0000066C0000064C0000062C000000C
:1000600060C000000EC100005CC000005AC000006B
:1000700058C0000056C0000054C0000052C000002C
:1000800050C000004EC000004CC000004AC000003C
:1000900048C0000046C0000044C0000042C000004C
:1000A00040C000003EC000003CC000003AC000005C
:1000B00038C0000036C0000034C0000032C000006C
:1000C00030C000002EC000002CC000002AC000007C
:1000D00028C0000026C0000024C0000022C000008C
:1000E00020C0000011241FBECFEFD1E2DEBFCDBF84
:1000F00000E00CBF12E0A0E0B2E0E6EEF2E000E0CB
:100100000BBF02C007900D92AC30B107D9F726E0C3
:10011000ACE0B2E001C01D92AF30B207E1F702D00F
:10012000E0C06ECFCF93DF93CDB7DEB7E2970FB6C7
:10013000F894DEBF0FBECDBF1AD080E092E05CD055
:1001400086E092E059D00F2EF2E3FF2EF02D8E01C3
:100150000F5F1F4F8FD08823E9F3F8018F2D119285
:100160008A95E9F7C80152D0C80146D0F3CF109262
:10017000C50087E68093C40082E08093C00086E0DB
:100180008093C200E1ECF0E080818861808380810F
:1001900080688083789408950F931F93CF93DF93A3
:1001A0008C01161617069CF420E0E0ECF0E0C6EC9B
:1001B000D0E0908195FFFDCFD801A20FB11D9C9199
:1001C00098832F5F422F50E04617570794F3E0ECD7
:1001D000F0E0808185FFFDCF8DE08093C600E0ECEC
:1001E000F0E0808185FFFDCF8AE08093C600DF913B
:1001F000CF911F910F910895FC0101900020E9F724
:100200003197BF01681B790BC7CF0895AC0180916E
:100210000C02882339F180910C02815080930C02EA
:10022000E0910E02F0E0E15FFD4F80818D30D1F072
:1002300090E0E0910E0221E02E0F20930E02F0E0FC
:10024000E15FFD4F2081FA01E90FF11D20838091CC
:100250000E02E0910E029F5FF0E0E15FFD4F208112
:100260002D3039F780910E028F5F80930E028091BE
:100270000E02089590910C0281E0911101C080E07E
:1002800008951F920F920FB60F9211240BB60F9282
:100290008F93EF93FF93E0910D028091C600F0E001
:1002A000E15FFD4F8083E0910D02F0E0E15FFD4FE3
:1002B00080818D3029F480910C028F5F80930C0235
:1002C00080910D028F5F80930D0280910D02FF914E
:1002D000EF918F910F900BBE0F900FBE0F901F905C
:0602E0001895F894FFCF11
:0C02E60048656C6C6F00576F726C640010
:00000001FF
